{
  "_format": "hh-sol-artifact-1",
  "contractName": "CoffeeFactory",
  "sourceName": "contracts/CoffeeFactory.sol",
  "abi": [
    {
      "inputs": [],
      "stateMutability": "payable",
      "type": "constructor"
    },
    {
      "anonymous": false,
      "inputs": [
        {
          "indexed": true,
          "internalType": "address",
          "name": "from",
          "type": "address"
        },
        {
          "indexed": false,
          "internalType": "uint256",
          "name": "timestamp",
          "type": "uint256"
        },
        {
          "indexed": false,
          "internalType": "string",
          "name": "message",
          "type": "string"
        },
        {
          "indexed": false,
          "internalType": "string",
          "name": "name",
          "type": "string"
        }
      ],
      "name": "NewCoffeeHurray",
      "type": "event"
    },
    {
      "inputs": [
        {
          "internalType": "string",
          "name": "_message",
          "type": "string"
        },
        {
          "internalType": "string",
          "name": "_name",
          "type": "string"
        },
        {
          "internalType": "uint256",
          "name": "_amount",
          "type": "uint256"
        }
      ],
      "name": "buyACoffee",
      "outputs": [],
      "stateMutability": "payable",
      "type": "function"
    },
    {
      "inputs": [],
      "name": "getAllCoffee",
      "outputs": [
        {
          "components": [
            {
              "internalType": "address",
              "name": "giver",
              "type": "address"
            },
            {
              "internalType": "string",
              "name": "message",
              "type": "string"
            },
            {
              "internalType": "string",
              "name": "name",
              "type": "string"
            },
            {
              "internalType": "uint256",
              "name": "timestamp",
              "type": "uint256"
            }
          ],
          "internalType": "struct CoffeeFactory.Coffee[]",
          "name": "",
          "type": "tuple[]"
        }
      ],
      "stateMutability": "view",
      "type": "function"
    },
    {
      "inputs": [],
      "name": "getTotalCoffee",
      "outputs": [
        {
          "internalType": "uint256",
          "name": "",
          "type": "uint256"
        }
      ],
      "stateMutability": "view",
      "type": "function"
    },
    {
      "inputs": [],
      "name": "owner",
      "outputs": [
        {
          "internalType": "address payable",
          "name": "",
          "type": "address"
        }
      ],
      "stateMutability": "view",
      "type": "function"
    }
  ],
  "bytecode": "0x60806040526200004f6040518060400160405280601e81526020017f54696d6520746f2070617920736f6d6520667265736820636f666665652100008152506200009660201b620005f21760201c565b33600160006101000a81548173ffffffffffffffffffffffffffffffffffffffff021916908373ffffffffffffffffffffffffffffffffffffffff1602179055506200022a565b6200013681604051602401620000ad9190620001a3565b6040516020818303038152906040527f41304fac000000000000000000000000000000000000000000000000000000007bffffffffffffffffffffffffffffffffffffffffffffffffffffffff19166020820180517bffffffffffffffffffffffffffffffffffffffffffffffffffffffff83818316178352505050506200013960201b60201c565b50565b60008151905060006a636f6e736f6c652e6c6f679050602083016000808483855afa5050505050565b60006200016f82620001c7565b6200017b8185620001d2565b93506200018d818560208601620001e3565b620001988162000219565b840191505092915050565b60006020820190508181036000830152620001bf818462000162565b905092915050565b600081519050919050565b600082825260208201905092915050565b60005b8381101562000203578082015181840152602081019050620001e6565b8381111562000213576000848401525b50505050565b6000601f19601f8301169050919050565b611068806200023a6000396000f3fe60806040526004361061003f5760003560e01c806309f1221e146100445780634839ee3f146100605780638da5cb5b1461008b578063d386beca146100b6575b600080fd5b61005e6004803603810190610059919061090c565b6100e1565b005b34801561006c57600080fd5b5061007561039e565b6040516100829190610cb8565b60405180910390f35b34801561009757600080fd5b506100a06103e9565b6040516100ad9190610bb9565b60405180910390f35b3480156100c257600080fd5b506100cb61040f565b6040516100d89190610bd4565b60405180910390f35b600066038d7ea4c68000905080821015610130576040517f08c379a000000000000000000000000000000000000000000000000000000000815260040161012790610c98565b60405180910390fd5b60016000808282546101429190610ddf565b925050819055506101886040518060400160405280601581526020017f2573206a7573742073656e74206120636f6666656500000000000000000000008152503361068b565b600260405180608001604052803373ffffffffffffffffffffffffffffffffffffffff16815260200186815260200185815260200142815250908060018154018082558091505060019003906000526020600020906004020160009091909190915060008201518160000160006101000a81548173ffffffffffffffffffffffffffffffffffffffff021916908373ffffffffffffffffffffffffffffffffffffffff160217905550602082015181600101908051906020019061024d9291906107ec565b50604082015181600201908051906020019061026a9291906107ec565b506060820151816003015550506000600160009054906101000a900473ffffffffffffffffffffffffffffffffffffffff1673ffffffffffffffffffffffffffffffffffffffff16836040516102bf90610ba4565b60006040518083038185875af1925050503d80600081146102fc576040519150601f19603f3d011682016040523d82523d6000602084013e610301565b606091505b5050905080610345576040517f08c379a000000000000000000000000000000000000000000000000000000000815260040161033c90610c78565b60405180910390fd5b3373ffffffffffffffffffffffffffffffffffffffff167fbb335578b9feadf306a68c2bd85597d1e405233265d025acf80209e57835251d42878760405161038f93929190610cd3565b60405180910390a25050505050565b60006103e16040518060400160405280601f81526020017f5765206861766520726563656976656420256420636f66666565656565652100815250600054610727565b600054905090565b600160009054906101000a900473ffffffffffffffffffffffffffffffffffffffff1681565b60606002805480602002602001604051908101604052809291908181526020016000905b828210156105e957838290600052602060002090600402016040518060800160405290816000820160009054906101000a900473ffffffffffffffffffffffffffffffffffffffff1673ffffffffffffffffffffffffffffffffffffffff1673ffffffffffffffffffffffffffffffffffffffff1681526020016001820180546104bc90610ec5565b80601f01602080910402602001604051908101604052809291908181526020018280546104e890610ec5565b80156105355780601f1061050a57610100808354040283529160200191610535565b820191906000526020600020905b81548152906001019060200180831161051857829003601f168201915b5050505050815260200160028201805461054e90610ec5565b80601f016020809104026020016040519081016040528092919081815260200182805461057a90610ec5565b80156105c75780601f1061059c576101008083540402835291602001916105c7565b820191906000526020600020905b8154815290600101906020018083116105aa57829003601f168201915b5050505050815260200160038201548152505081526020019060010190610433565b50505050905090565b610688816040516024016106069190610bf6565b6040516020818303038152906040527f41304fac000000000000000000000000000000000000000000000000000000007bffffffffffffffffffffffffffffffffffffffffffffffffffffffff19166020820180517bffffffffffffffffffffffffffffffffffffffffffffffffffffffff83818316178352505050506107c3565b50565b61072382826040516024016106a1929190610c18565b6040516020818303038152906040527f319af333000000000000000000000000000000000000000000000000000000007bffffffffffffffffffffffffffffffffffffffffffffffffffffffff19166020820180517bffffffffffffffffffffffffffffffffffffffffffffffffffffffff83818316178352505050506107c3565b5050565b6107bf828260405160240161073d929190610c48565b6040516020818303038152906040527f9710a9d0000000000000000000000000000000000000000000000000000000007bffffffffffffffffffffffffffffffffffffffffffffffffffffffff19166020820180517bffffffffffffffffffffffffffffffffffffffffffffffffffffffff83818316178352505050506107c3565b5050565b60008151905060006a636f6e736f6c652e6c6f679050602083016000808483855afa5050505050565b8280546107f890610ec5565b90600052602060002090601f01602090048101928261081a5760008555610861565b82601f1061083357805160ff1916838001178555610861565b82800160010185558215610861579182015b82811115610860578251825591602001919060010190610845565b5b50905061086e9190610872565b5090565b5b8082111561088b576000816000905550600101610873565b5090565b60006108a261089d84610d3d565b610d18565b9050828152602081018484840111156108ba57600080fd5b6108c5848285610e83565b509392505050565b600082601f8301126108de57600080fd5b81356108ee84826020860161088f565b91505092915050565b6000813590506109068161101b565b92915050565b60008060006060848603121561092157600080fd5b600084013567ffffffffffffffff81111561093b57600080fd5b610947868287016108cd565b935050602084013567ffffffffffffffff81111561096457600080fd5b610970868287016108cd565b9250506040610981868287016108f7565b9150509250925092565b60006109978383610b1c565b905092915050565b6109a881610e47565b82525050565b6109b781610e35565b82525050565b6109c681610e35565b82525050565b60006109d782610d7e565b6109e18185610da1565b9350836020820285016109f385610d6e565b8060005b85811015610a2f5784840389528151610a10858261098b565b9450610a1b83610d94565b925060208a019950506001810190506109f7565b50829750879550505050505092915050565b6000610a4c82610d89565b610a568185610dbd565b9350610a66818560208601610e92565b610a6f81610fb5565b840191505092915050565b6000610a8582610d89565b610a8f8185610dce565b9350610a9f818560208601610e92565b610aa881610fb5565b840191505092915050565b6000610ac0601483610dce565b9150610acb82610fc6565b602082019050919050565b6000610ae3601a83610dce565b9150610aee82610fef565b602082019050919050565b6000610b06600083610db2565b9150610b1182611018565b600082019050919050565b6000608083016000830151610b3460008601826109ae565b5060208301518482036020860152610b4c8282610a41565b91505060408301518482036040860152610b668282610a41565b9150506060830151610b7b6060860182610b86565b508091505092915050565b610b8f81610e79565b82525050565b610b9e81610e79565b82525050565b6000610baf82610af9565b9150819050919050565b6000602082019050610bce600083018461099f565b92915050565b60006020820190508181036000830152610bee81846109cc565b905092915050565b60006020820190508181036000830152610c108184610a7a565b905092915050565b60006040820190508181036000830152610c328185610a7a565b9050610c4160208301846109bd565b9392505050565b60006040820190508181036000830152610c628185610a7a565b9050610c716020830184610b95565b9392505050565b60006020820190508181036000830152610c9181610ab3565b9050919050565b60006020820190508181036000830152610cb181610ad6565b9050919050565b6000602082019050610ccd6000830184610b95565b92915050565b6000606082019050610ce86000830186610b95565b8181036020830152610cfa8185610a7a565b90508181036040830152610d0e8184610a7a565b9050949350505050565b6000610d22610d33565b9050610d2e8282610ef7565b919050565b6000604051905090565b600067ffffffffffffffff821115610d5857610d57610f86565b5b610d6182610fb5565b9050602081019050919050565b6000819050602082019050919050565b600081519050919050565b600081519050919050565b6000602082019050919050565b600082825260208201905092915050565b600081905092915050565b600082825260208201905092915050565b600082825260208201905092915050565b6000610dea82610e79565b9150610df583610e79565b9250827fffffffffffffffffffffffffffffffffffffffffffffffffffffffffffffffff03821115610e2a57610e29610f28565b5b828201905092915050565b6000610e4082610e59565b9050919050565b6000610e5282610e59565b9050919050565b600073ffffffffffffffffffffffffffffffffffffffff82169050919050565b6000819050919050565b82818337600083830152505050565b60005b83811015610eb0578082015181840152602081019050610e95565b83811115610ebf576000848401525b50505050565b60006002820490506001821680610edd57607f821691505b60208210811415610ef157610ef0610f57565b5b50919050565b610f0082610fb5565b810181811067ffffffffffffffff82111715610f1f57610f1e610f86565b5b80604052505050565b7f4e487b7100000000000000000000000000000000000000000000000000000000600052601160045260246000fd5b7f4e487b7100000000000000000000000000000000000000000000000000000000600052602260045260246000fd5b7f4e487b7100000000000000000000000000000000000000000000000000000000600052604160045260246000fd5b6000601f19601f8301169050919050565b7f4661696c656420746f2073656e64206d6f6e6579000000000000000000000000600082015250565b7f4e6f7420656e6f75676820666f72206120636f66666565203a28000000000000600082015250565b50565b61102481610e79565b811461102f57600080fd5b5056fea2646970667358221220a40dfbe5f6d96083e632eb748300ce94d1ecb0d0ded130a906d5cdf1b013d3e964736f6c63430008040033",
  "linkReferences": {},
  "deployedLinkReferences": {}
}